:020000040000FA
:100000008031372808000C347E1480312E00961E73
:100010000A280B2813288C1E0E280F281328943129
:100020004124803135280B1F162817283528991CA4
:100030001A281B2820288F1C1E281F282028352816
:10004000191C2328242829280F1C27282828292878
:1000500035289A1C2C282D283528901C302831282A
:1000600035289231AF22803135287E100900803149
:100070003928803103208031FD00B5308400923072
:10008000850021001200B8001200B9001200BA0069
:100090001200BB001200BC001200BD0073308400CF
:1000A000233085007D30FE000030FF0093311723A0
:1000B0008031F901FA01FB01FC012000ED01EE01A4
:1000C000EF01A0308400003085000C30FE000030CD
:1000D000FF009331172380317E1020008D31A72D32
:1000E0002000E600440803197628772889288F30F5
:1000F0009231C32280312E302000AE009830AF0004
:1001000055308C3109248031553094312B24803185
:100110009A288F309231C322803132302000AE00D5
:100120009830AF0055308C310924803155309431EE
:100130002B24803120004908031D9F28A028602916
:1001400080309231C322803100302000AE009830E0
:10015000AF004608CF00D0014F08B0005008B100F2
:100160004708D100D2015108B2005208B300480834
:10017000D300D4015308B4005408B50055308C3175
:1001800009248031553094312B248031C030923194
:10019000C322803119302000AE009830AF006608CD
:1001A000CF00D0014F08B0005008B10055308C315D
:1001B00009248031553094312B248031CE30923156
:1001C000C322803120302000AE009830AF004308B9
:1001D000CF00D0014F08B0005008B10055308C312D
:1001E00009248031553094312B248031200045037F
:1001F000031DFB28FC2812298A309231C32280314A
:100200001E302000AE009830AF0055308C310924EC
:100210008031553094312B2480319A309231C32271
:1002200080316C2E02304506031D172918292E290E
:100230008A309231C322803130302000AE009830B5
:10024000AF0055308C3109248031553094312B2446
:1002500080319A309231C32280316C2E03304506B2
:10026000031D332934294A298A309231C32280312F
:100270002C302000AE009830AF0055308C3109246E
:100280008031553094312B2480319A309231C32201
:1002900080316C2E8A309231C32280312830200088
:1002A000AE009830AF0055308C3109248031553084
:1002B00094312B2480319A309231C32280316C2EBC
:1002C0004903031D64296529D02980309231C32256
:1002D000803100302000AE009830AF004608CF00DB
:1002E000D0014F08B0005008B1004708D100D2013A
:1002F0005108B2005208B3004808D300D401530893
:10030000B4005408B50055308C3109248031553083
:1003100094312B2480318A309231C32280312A30AB
:100320002000AE009830AF0055308C310924803168
:10033000553094312B248031C0309231C32280312A
:1003400019302000AE009830AF006608CF00D00111
:100350004F08B0005008B10055308C31092480316D
:10036000553094312B248031CE309231C3228031EC
:1003700020302000AE009830AF004308CF00D001FD
:100380004F08B0005008B10055308C31092480313D
:10039000553094312B24803181309231C322803109
:1003A000023020004906031DD629D729422A803071
:1003B0009231C322803100302000AE009830AF006F
:1003C0004608CF00D0014F08B0005008B1004708E0
:1003D000D100D2015108B2005208B3004808D3003E
:1003E000D4015308B4005408B50055308C310924A9
:1003F0008031553094312B2480318A309231C322A0
:1004000080312A302000AE009830AF0055308C315A
:1004100009248031553094312B248031C030923101
:10042000C322803119302000AE009830AF0066083A
:10043000CF00D0014F08B0005008B10055308C31CA
:1004400009248031553094312B248031CE309231C3
:10045000C322803120302000AE009830AF00430826
:10046000CF00D0014F08B0005008B10055308C319A
:1004700009248031553094312B24803184309231DD
:10048000C3228031033020004906031D482A492A2F
:10049000B42A80309231C322803100302000AE0077
:1004A0009830AF004608CF00D0014F08B000500888
:1004B000B1004708D100D2015108B2005208B30080
:1004C0004808D300D4015308B4005408B50055308F
:1004D0008C3109248031553094312B2480318A307D
:1004E0009231C32280312A302000AE009830AF0014
:1004F00055308C3109248031553094312B24803192
:10050000C0309231C322803119302000AE009830C3
:10051000AF006608CF00D0014F08B0005008B1000E
:1005200055308C3109248031553094312B24803161
:10053000CE309231C322803120302000AE0098307E
:10054000AF004308CF00D0014F08B0005008B10001
:1005500055308C3109248031553094312B24803131
:1005600087309231C3228031043020004906031DB8
:10057000BA2ABB2A262B8A309231C32280312A30F4
:100580002000AE009830AF0055308C310924803106
:10059000553094312B248031C0309231C3228031C8
:1005A00019302000AE009830AF006608CF00D001AF
:1005B0004F08B0005008B10055308C31092480310B
:1005C000553094312B248031CE309231C32280318A
:1005D00020302000AE009830AF004308CF00D0019B
:1005E0004F08B0005008B10055308C3109248031DB
:1005F000553094312B24803180309231C3228031A8
:1006000000302000AE009830AF004C08CF00D00181
:100610004F08B0005008B1004D08D100D201510878
:10062000B2005208B3004E08D300D4015308B400FE
:100630005408B50055308C3109248031553094313F
:100640002B2480318A309231C32280310530200042
:100650004906031D2C2B2D2B982B8A309231C32257
:1006600080312A302000AE009830AF0055308C31F8
:1006700009248031553094312B248031C03092319F
:10068000C322803119302000AE009830AF006608D8
:10069000CF00D0014F08B0005008B10055308C3168
:1006A00009248031553094312B248031CE30923161
:1006B000C322803120302000AE009830AF004308C4
:1006C000CF00D0014F08B0005008B10055308C3138
:1006D00009248031553094312B248031803092317F
:1006E000C322803100302000AE009830AF004C08AB
:1006F000CF00D0014F08B0005008B1004D08D10024
:10070000D2015108B2005208B3004E08D300D40100
:100710005308B4005408B50055308C310924803199
:10072000553094312B24803181309231C322803175
:10073000063020004906031D9E2B9F2B0A2C8A3071
:100740009231C32280312A302000AE009830AF00B1
:1007500055308C3109248031553094312B2480312F
:10076000C0309231C322803119302000AE00983061
:10077000AF006608CF00D0014F08B0005008B100AC
:1007800055308C3109248031553094312B248031FF
:10079000CE309231C322803120302000AE0098301C
:1007A000AF004308CF00D0014F08B0005008B1009F
:1007B00055308C3109248031553094312B248031CF
:1007C00080309231C322803100302000AE0098305A
:1007D000AF004C08CF00D0014F08B0005008B10066
:1007E0004D08D100D2015108B2005208B3004E08A2
:1007F000D300D4015308B4005408B50055308C31EF
:1008000009248031553094312B2480318430923149
:10081000C3228031073020004906031D102C112C03
:10082000802C8A309231C32280312A302000AE00E1
:100830009830AF0055308C310924803155309431D7
:100840002B248031C0309231C322803119302000F6
:10085000AE009830AF006608CF00D0014F08B0005E
:100860005008B10055308C31092480315530943115
:100870002B248031CE309231C322803120302000B1
:10088000AE009830AF004308CF00D0014F08B00051
:100890005008B10055308C310924803155309431E5
:1008A0002B24803181309231C322803180309231CB
:1008B000C322803100302000AE009830AF004C08D9
:1008C000CF00D0014F08B0005008B1004D08D10052
:1008D000D2015108B2005208B3004E08D300D4012F
:1008E0005308B4005408B50055308C3109248031C8
:1008F000553094312B24803187309231C32280319E
:10090000083020004906031D862C872CF62C8030E9
:100910009231C322803100302000AE009830AF0009
:100920004608CF00D0014F08B0005008B10047087A
:10093000D100D2015108B2005208B3004808D300D8
:10094000D4015308B4005408B50055308C31092443
:100950008031553094312B2480318A309231C3223A
:1009600080312A302000AE009830AF0055308C31F5
:1009700009248031553094312B248031CE3092318E
:10098000C322803120302000AE009830AF004308F1
:10099000CF00D0014F08B0005008B10055308C3165
:1009A00009248031553094312B24803181309231AB
:1009B000C3228031C0309231C322803119302000EF
:1009C000AE009830AF004A08CF00D0014F08B00009
:1009D0005008B10055308C310924803155309431A4
:1009E0002B2480318B309231C3228031093020009A
:1009F0004906031DFC2CFD2C6C2D80309231C32246
:100A0000803100302000AE009830AF004608CF00A3
:100A1000D0014F08B0005008B1004708D100D20102
:100A20005108B2005208B3004808D300D40153085B
:100A3000B4005408B50055308C310924803155304C
:100A400094312B2480318A309231C32280312A3074
:100A50002000AE009830AF0055308C310924803131
:100A6000553094312B248031CE309231C3228031E5
:100A700020302000AE009830AF004308CF00D001F6
:100A80004F08B0005008B10055308C310924803136
:100A9000553094312B24803181309231C322803102
:100AA000C0309231C322803119302000AE0098301E
:100AB000AF004A08CF00D0014F08B0005008B10085
:100AC00055308C3109248031553094312B248031BC
:100AD000C1309231C32280310A3020004906031D03
:100AE000722D732DDE2D80309231C3228031003083
:100AF0002000AE009830AF004608CF00D0014F086C
:100B0000B0005008B1004708D100D2015108B2002E
:100B10005208B3004808D300D4015308B400540865
:100B2000B50055308C3109248031553094312B2457
:100B300080318A309231C32280312A302000AE00C9
:100B40009830AF0055308C310924803155309431C4
:100B50002B248031C0309231C322803119302000E3
:100B6000AE009830AF006608CF00D0014F08B0004B
:100B70005008B10055308C31092480315530943102
:100B80002B248031CE309231C3228031203020009E
:100B9000AE009830AF004B08CF00D0014F08B00036
:100BA0005008B10055308C310924803155309431D2
:100BB0002B2480318C309231C32280310B302000C5
:100BC0004906031DE42DE52D502E80309231C322BD
:100BD000803100302000AE009830AF004608CF00D2
:100BE000D0014F08B0005008B1004708D100D20131
:100BF0005108B2005208B3004808D300D40153088A
:100C0000B4005408B50055308C310924803155307A
:100C100094312B2480318A309231C32280312A30A2
:100C20002000AE009830AF0055308C31092480315F
:100C3000553094312B248031C0309231C322803121
:100C400019302000AE009830AF006608CF00D00108
:100C50004F08B0005008B10055308C310924803164
:100C6000553094312B248031CE309231C3228031E3
:100C700020302000AE009830AF004B08CF00D001EC
:100C80004F08B0005008B10055308C310924803134
:100C9000553094312B248031CF309231C3228031B2
:100CA0000C3020004906031D562E572E6C2E8A301C
:100CB0009231C322803126302000AE009830AF0040
:100CC00055308C3109248031553094312B248031BA
:100CD0008F309231C3228031080096302000A0006E
:100CE0007030A1009331822386312000A2002208B7
:100CF000A300A130A4007030A500AA302306031D74
:100D0000822E832EE12FA130A0007030A1009331FC
:100D1000822386312000A20022082100A900013090
:100D20002000A4020030A53B2508A1002408A00053
:100D30009331822386312000A20022082100A902DB
:100D400001302000A4020030A53B2508A1002408A2
:100D5000A0009331822386312000A20022082100C6
:100D6000A90201302000A4020030A53B2508A10003
:100D70002408A0009331822386312000A20022089B
:100D80002100A90201302000A4020030A53B250863
:100D9000A1002408A0009331822386312000A20004
:100DA00022082100A90201302000A4020030A53B46
:100DB0002508A1002408A000933182238631200059
:100DC000A20022082100A90201302000A402003064
:100DD000A53B2508A1002408A00093318223863179
:100DE0002000A20022082100A90201302000A40254
:100DF0000030A53B2508A1002408A00093318223E0
:100E000086312000A20022082100A9020130200022
:100E1000A4020030A53B2508A1002408A0009331BE
:100E2000822386312000A20022082100A90201307D
:100E30002000A4020030A53B2508A1002408A00042
:100E40009331822386312000A20022082100A902CA
:100E500001302000A4020030A53B2508A100240891
:100E6000A0009331822386312000A20022082100B5
:100E7000A9022908031D3D2F3E2FE12F2000250840
:100E8000A1002408A0009331822386312000A20013
:100E900022082100BD0001302000A4070030A53D3C
:100EA0002508A1002408A000933182238631200068
:100EB000A20022082100BC0001302000A40700305D
:100EC000A53D2508A1002408A00093318223863186
:100ED0002000A2002208FD000130A4070030A53D3B
:100EE0002508A1002408A000933182238631200028
:100EF000A2002208FC000130A4070030A53D25080F
:100F0000A1002408A0009331822386312000A20092
:100F100022082100AB0001302000A4070030A53DCD
:100F20002508A1002408A0009331822386312000E7
:100F3000A20022082100BB0001302000A4070030DD
:100F4000A53D2508A1002408A00093318223863105
:100F50002000A20022082100BA0001302000A407CE
:100F60000030A53D2508A1002408A000933182236C
:100F700086312000A20022082100AA0001302000B2
:100F8000A4070030A53D2508A1002408A000933146
:100F9000822386312000A2002208FB000130A40732
:100FA0000030A53D2508A1002408A000933182232C
:100FB00086312000A2002208EF000130A407003093
:100FC000A53D080000308B1B0130F3007108300094
:100FD0009B0070089A0072089C001E171E158B1348
:100FE00055309F00AA309F009E149E18F82FF92FAD
:100FF000F52F1E11730C031C8B1303188B1708009D
:1010060008009331FF23883100309231CB2288319A
:101016009231F722883120002108A5002008A4007B
:101026002508A3002408A2000630A235A30D890BCB
:1010360018282208A4002308A5002508A3002408D0
:10104600A2000D30A336A20C890B25282208A40085
:101056002308A500240808009630F5007030F60035
:1010660021003D083C077D077C072B073B073A0715
:101076002A077B0720006F07F40074082100A900E7
:101086009630F0007030F100AA30F4007408F200D7
:101096008731E22788310130F5070030F63D7608C2
:1010A600F1007508F00021003D08F4007408F20014
:1010B6008731E22788310130F5070030F63D7608A2
:1010C600F1007508F00021003C08F4007408F200F5
:1010D6008731E22788310130F5070030F63D760882
:1010E600F1007508F0007D08F4007408F2008731FD
:1010F600E22788310130F5070030F63D7608F10029
:101106007508F0007C08F4007408F2008731E227C5
:1011160088310130F5070030F63D7608F100750894
:10112600F00021002B08F4007408F2008731E22752
:1011360088310130F5070030F63D7608F100750874
:10114600F00021003B08F4007408F2008731E22722
:1011560088310130F5070030F63D7608F100750854
:10116600F00021003A08F4007408F2008731E22703
:1011760088310130F5070030F63D7608F100750834
:10118600F00021002A08F4007408F2008731E227F3
:1011960088310130F5070030F63D7608F100750814
:1011A600F0007B08F4007408F2008731E2278831EA
:1011B6000130F5070030F63D7608F1007508F000BD
:1011C60020006F08F4007408F2008731E2278831A6
:1011D6000130F5070030F63D7608F1007508F0009D
:1011E60021002908F4007408F2008731E2278831CB
:1011F6000130F5070030F63D08002000A50025085F
:10120600F039A3002308A6002508A3000330A33560
:10121600FF3E031D0A292335F039A4002408A70040
:1012260023000F0C890C01392000A30023001108AC
:101236001F3920002304031D2129222913292300F5
:101246001114111827292829242923000F0C890C89
:1012560001392000A300230011081F3920002304B0
:10126600031D3629372928294E30973130278931F1
:1012760023000F0C890C01392000A300230011085C
:101286001F3920002304031D49294A293B29260822
:101296002204083897313027893123000F0C890C36
:1012A60001392000A300230011081F392000230460
:1012B600031D5E295F295029260822040C38973120
:1012C6003027893123000F0C890C01392000A30037
:1012D600230011081F3920002304031D73297429D4
:1012E60065292000260822040838973130278931DD
:1012F60023000F0C890C01392000A30023001108DC
:101306001F3920002304031D89298A297B292708E0
:101316002204083897313027893123000F0C890CB5
:1013260001392000A300230011081F3920002304DF
:10133600031D9E299F299029270822040C389731DE
:101346003027893123000F0C890C01392000A300B6
:10135600230011081F3920002304031DB329B429D3
:10136600A52920002708220408389731302789311B
:1013760023000F0C890C01392000A300230011085B
:101386001F3920002304031DC929CA29BB292300AC
:1013960011151119CF29D029CC290430890BD1294F
:1013A600080096302000A5007030A60021003D08F8
:1013B6003C077D077C072B073B073A072A077B0775
:1013C60020006F07A40024082100A9009630200001
:1013D600A0007030A100AA30A4002408A200953114
:1013E6002D25893101302000A5070030A63D2608AD
:1013F600A1002508A00021003D082000A400240823
:10140600A20095312D25893101302000A507003035
:10141600A63D2608A1002508A00021003C082000C2
:10142600A4002408A20095312D2589310130200021
:10143600A5070030A63D2608A1002508A0007D08C6
:10144600A4002408A20095312D2589310130200001
:10145600A5070030A63D2608A1002508A0007C08A7
:10146600A4002408A20095312D25893101302000E1
:10147600A5070030A63D2608A1002508A0002100EA
:101486002B082000A4002408A20095312D258931BF
:1014960001302000A5070030A63D2608A10025083A
:1014A600A00021003B082000A4002408A2009531DA
:1014B6002D25893101302000A5070030A63D2608DC
:1014C600A1002508A00021003A082000A400240855
:1014D600A20095312D25893101302000A507003065
:1014E600A63D2608A1002508A00021002A08200004
:1014F600A4002408A20095312D2589310130200051
:10150600A5070030A63D2608A1002508A0007B08F7
:10151600A4002408A20095312D2589310130200030
:10152600A5070030A63D2608A1002508A0006F08E3
:10153600A4002408A20095312D2589310130200010
:10154600A5070030A63D2608A1002508A000210019
:1015560029082000A4002408A20095312D258931F0
:1015660001302000A5070030A63D080023000F0C1F
:10157600890C01392000A200230011081F39200020
:101586002204031DC72AC82AB92A230011141118D8
:10159600CD2ACE2ACA2A23000F0C890C0139200035
:1015A600A200230011081F3920002204031DDC2A93
:1015B600DD2ACE2A9A30973130278A3123000F0C44
:1015C600890C01392000A200230011081F392000D0
:1015D6002204031DEF2AF02AE12A01309731302731
:1015E6008A3123000F0C890C01392000A200230048
:1015F60011081F3920002204031D022B032BF42A95
:10160600230091149118082B092B052B23000F0C8E
:10161600890C01392000A200230011081F3920007F
:101626002204031D172B182B092B9B3097313027CB
:101636008A3123000F0C890C01392000A2002300F7
:1016460011081F3920002204031D2A2B2B2B1C2BCB
:101656009431A9248A312000A2002208A300230085
:101666000F0C890C01392000A200230011081F3934
:1016760020002204031D402B412B322B2300911600
:101686001116111A472B482B442B23000F0C890CDB
:1016960001392000A200230011081F39200022046E
:1016A600031D562B572B482B2300111511195C2BA4
:1016B6005D2B592B2000231F612B622BB92A230097
:1016C6000F0C890C01392000A200230011081F39D4
:1016D60020002204031D702B712B622B2300111492
:1016E6001118762B772B732B23000F0C890C0139DD
:1016F6002000A200230011081F3920002204031D28
:10170600852B862B772B9A30973130278A31230009
:101716000F0C890C01392000A200230011081F3983
:1017260020002204031D982B992B8A2B0030973119
:1017360030278A3123000F0C890C01392000A200C2
:10174600230011081F3920002204031DAB2BAC2BEC
:101756009D2B230091149118B12BB22BAE2B230095
:101766000F0C890C01392000A200230011081F3933
:1017760020002204031DC02BC12BB22B9B309731B6
:1017860030278A3123000F0C890C01392000A20072
:10179600230011081F3920002204031DD32BD42B4C
:1017A600C52B9431A9248A312000A2002208A30067
:1017B60023000F0C890C01392000A2002300110818
:1017C6001F3920002204031DE92BEA2BDB2B230003
:1017D60091161116111AF02BF12BED2B23000F0C7D
:1017E600890C01392000A200230011081F392000AE
:1017F6002204031DFF2B002CF12B230011151119B8
:10180600052C062C022C2000230808002000C2000C
:101816003030B6003608BA008E2D25304106031941
:10182600152C162C222C4108B6004208860087018A
:10183600360881000130B6003608C2078E2DBF017A
:10184600C001BE012B2C3E150130AE070030AF3D66
:101856002E0884002F0885000008303A0319262C2C
:10186600342C2E0884002F08850000089331C123EC
:101876008C31031C3F2C402C732C2000BF01C0016F
:101886000A302000A0000030A1004008A3003F0855
:10189600A2009431C8248C3120002108C000200801
:1018A600BF002E0884002F0885000008D03EB60031
:1018B600FF3003180030B7003608BF073708C03DB1
:1018C6000130AE070030AF3D2E0884002F0885009A
:1018D60000089331C1238C310318722C732C432CCE
:1018E60020002F08B7002E08B600AE0A0319AF0A6B
:1018F60036088400370885000008C100003A03193D
:10190600A22D643A03198B2C0D3A03198B2C8E2DBC
:101916003A0886008701403FBC00413FBD000230C7
:10192600B6003608BA07BD1F992C9A2CA32C033093
:10193600B6003608BE04BC09BD09BC0A0319BD0AB7
:10194600C101C10A4108B600B701B635B70D0F305F
:10195600360784009830373D8500003FB800013FC8
:10196600B90039083D02031DBA2C38083C02031899
:10197600BD2CBE2CBF2CC92C0130B6003608C107C1
:1019860005304106031DC82CC92CA52C3F08400470
:101996000319CE2CCF2CD92C3E0803390319D42C8D
:1019A600D52CD92CFF30BF07FF30C03D4008803A08
:1019B600803C031DE02C3F0841020318E32CE42C75
:1019C600ED2C20004108B600B7013608BF023708E3
:1019D600C03BF02C2000BF01C0013E1DF32CF42CAF
:1019E600212D3E0803390319F92CFA2C052D2D302B
:1019F600B600420886008701360881000130B6002D
:101A06003608C2073F08400403190A2D0B2D4D2D39
:101A16003030B60042088600870136088100013062
:101A2600B6003608C207FF30BF07FF30C03D3F088B
:101A36004004031D1F2D202D0B2D4D2D3F08400466
:101A46000319262D272D3C2D2030B600420886008E
:101A56008701360881000130B6003608C207FF301C
:101A6600BF07FF30C03D3F084004031D3B2D3C2D02
:101A7600272D3E0803390319412D422D4D2D2D30BA
:101A8600B600420886008701360881000130B6009C
:101A96003608C2074108B6003608BB00852D0A3055
:101AA600A8000030A9003B08B600B701B635B70D4F
:101AB6000F30360784009830373D8500003FA00080
:101AC600013FA1003D08A3003C08A2009531F7257F
:101AD6008C3120002108AB002008AA00953185250D
:101AE6008C3120002808303EB8003808C100410873
:101AF600B600420886008701360881000130B6002C
:101B06003608C207FF30B6003608BB073B0A031D7E
:101B16008D2D8E2D522D2F08B7002E08B600AE0A39
:101B26000319AF0A36088400370885000008B80094
:101B36003808C1004108031DA12DA22D102C420812
:101B460086008701810108002000EC0194311524EC
:101B56008D31DA302000A0001630A1009231DC224F
:101B66008D31E8302000A0001430A1009231E5222A
:101B76008D318B170B1793310B238D312000931565
:101B860013163E00CF154F1697318A278D318631B1
:101B96006D268D3121003D080319D22DD32D5C2EE3
:101BA6003D08AC00AD012C082000A80021002D083E
:101BB6002000A9007A08AB007908AA00953185258E
:101BC6008D31200028082904031DEA2DEB2D5C2EFB
:101BD6008A31B9228D312100AC002C082000E800A2
:101BE600883104208D312100AC002C082000E9004A
:101BF60068086A06031D002E012E072E69086B066B
:101C06000319062E072E132E68082100AC002C0897
:101C16002000EA0069082100AC002C082000EB0037
:101C260021002A03031D182E192E5C2E2808031DD9
:101C36001D2E1E2E5C2E20006A0821003B02031872
:101C4600252E262E2B2E0230AC002C08A8005C2E4A
:101C56003A0820006B020318312E322E382E03303C
:101C66002100AC002C08A8005C2E7B087D06031D15
:101C76003D2E3E2E5C2E6F087C06031D432E442E01
:101C86005C2E3C30A8000030A9007A08AB00790829
:101C9600AA00953185258D3121002B0820002806C4
:101CA6002904031D572E582E5C2E2100A801A80AD0
:101CB6005C2E94316F248D3194318C248D31622FBA
:101CC6006E03031D672E682E8C2F21002808031D26
:101CD6006D2E6E2E722E2000EC01EC0A8C2FA801C0
:101CE6008C2F6D03031D782E792E7D2E933166235E
:101CF6008D318C2F6E03031D812E822E8C2F023088
:101D06002100AC002C082000EC008C2F6D03031D75
:101D16008D2E8E2E922E933174238D318C2F6E0341
:101D2600031D962E972E8C2F03302100AC002C0815
:101D36002000EC008C2F6D03031DA22EA32EA72ED0
:101D46009231AA228D318C2F6E03031DAB2EAC2E41
:101D56008C2F04302100AC002C082000EC008C2FC6
:101D66006D03031DB72EB82EBF2E05302100AC0023
:101D76002C082000EC008C2F6E03031DC32EC42EEE
:101D86008C2F08302100AC002C082000EC008C2F92
:101D96006D03031DCF2ED02ED42E93314A238D31C1
:101DA6008C2F6E03031DD82ED92E8C2F06302100C2
:101DB600AC002C082000EC008C2F6D03031DE42ED4
:101DC600E52EE92E933158238D318C2F6E03031D9A
:101DD600ED2EEE2E8C2F07302100AC002C082000B3
:101DE600EC008C2F6D03031DF92EFA2EFE2E933177
:101DF60091238D318C2F6E03031D022F032F8C2F01
:101E0600C42E6D03031D082F092F102F0930210042
:101E1600AC002C082000EC008C2F6E03031D142F41
:101E2600152F8C2F0A302100AC002C082000EC0066
:101E36008C2F6D03031D202F212F252F9331B123C6
:101E46008D318C2F6E03031D292F2A2F8C2F152FD2
:101E56006D03031D2F2F302F372F0B302100AC00C1
:101E66002C082000EC008C2F6E03031D3B2F3C2F0B
:101E76008C2F0C302100AC002C082000EC008C2F9D
:101E86006D03031D472F482F4C2F9331A1238D310E
:101E96008C2F6E03031D502F512F8C2F3C2F6D035B
:101EA600031D562F572F5B2F933100238D318C2F17
:101EB6006E03031D5F2F602F8C2FEC018C2F2000EB
:101EC6006C08003A0319632E013A0319742E033A7B
:101ED6000319892E013A03199E2E073A0319B32EC8
:101EE600013A0319CB2E033A0319E02E013A0319DE
:101EF600F52E0F3A0319042F013A03191C2F033A42
:101F060003192B2F013A0319432F073A0319522FAE
:101F16008C2F20006C080319912F922F952F893151
:101F2600D4218D313C302000A8000030A9007A0869
:101F3600AB007908AA00953185258D312000280847
:101F46002100AC002C082000E7006B082100AC0043
:101F56002C082000C30021002A08AD002D0820000F
:101F6600C40021002808AE002E082000C5007B080A
:101F76002100AF002F082000C6006F082100B00026
:101F860030082000C70067082100B1003108200092
:101F9600C8006C082100B20032082000C9002100E8
:101FA6003B08B30033082000CA0021003A08B400F9
:101FB60034082000CB007D082100B500350820003C
:101FC600CC007C082100B60036082000CD00210098
:101FD6002B08B70037082000CE006A088031702031
:101FE6008D3121302100AC007630890BF82FAC0BF7
:0A1FF600F82F0000CD2D80313728B0
:102554000130F9070030FA3D08002E009010933145
:102564003023923108000034F03404341C34053430
:1025740003342F0096019701980199019A019B0158
:1025840008002000A800A201280889310021923106
:1025940008002000A000200821009E0093171314B7
:1025A4000800623031008D008F01910102309300E8
:1025B40092010800200021082100C1002000200809
:1025C4002100C0000800200021082100BF002000D5
:1025D40020082100BE0008002000A800A201A20AD1
:1025E4002808893100219231080021000D082000BB
:1025F400A10021000C082000A000080021002A08E6
:10260400031D052B062B092BAA01AA0A0A2BAA01D2
:1026140008002300901A0F2B102B162B8F01283043
:102624009000910103308D000800640080010131A5
:102634000130FE020030FF3B7F087E04031D182B8F
:1026440000342100400841040319292B2A2B2F2B85
:1026540041088A0040080A009331080021003E081E
:102664003F040319362B372B3C2B3F088A003E08C6
:102674000A0093310800803027008E0005308D0059
:10268400C0308C0024001F08F33904389F00080070
:1026940017307D06031D4F2B502B522BFD01572B5A
:1026A40001302000A0002008FD0708003B307C0614
:1026B400031D5D2B5E2B602BFC01652B013020007C
:1026C400A0002008FC07080017307B06031D6B2BB5
:1026D4006C2B6E2BFB01732B01302000A000200813
:1026E400FB0708003B3020006F06031D7A2B7B2B71
:1026F4007D2BEF01812B0130A0002008EF0708009B
:102704002000210830009B002000200830009A009F
:102714001E171E140000000030001C0808003B3087
:1027240021002B06031D972B982B9A2BAB01A02B72
:1027340001302000A00020082100AB07080007306A
:1027440021003A06031DA72BA82BAA2BBA01B02BF4
:1027540001302000A00020082100BA070800323010
:1027640021003B06031DB72BB82BBA2BBB01C02B92
:1027740001302000A00020082100BB070800200031
:10278400A100A0013A3021020318C92BCA2BD22B75
:1027940030302102031CCF2BD02BD22BA001A00A56
:1027A400200C0800863020009F0001309D009C0111
:1027B4002E008C12961603302000A0000830A100D1
:1027C4009231DC229331803020009E000800710891
:1027D400F3007008F200F336F20CF336F20C7208D0
:1027E40027008D0070080339F2000530F235FF3EF2
:1027F400031DF82B72358C00080022008E018F0116
:1028040090019101920193018D0121009E019B0190
:1028140094019501960197019A01990198018430D8
:1028240093009D0108009231BB2294319531BA2561
:1028340094319231D322943193313D2394319331A5
:10284400FF2394319431582494319331D423943117
:1028540008002000AB00322C2A089231EE22943179
:1028640020002B0886008701AB0A0108A90029086B
:10287400AA002A08031D3F2C402C2E2C08002E00F1
:102884008C1201302100A2070030A33D0030230246
:10289400F43003192202031C502C512C572C933171
:1028A400232394312100A201A30108000130250053
:1028B40090008F0191010B308D008C012E0090103F
:1028C4009A1402302000A0000030A1009231E522C9
:1028D4009431FF3025008E00080020006E08031D8F
:1028E400742C752C862C0D1A782C792C8B2C413059
:1028F4002000A000EE30890B7D2CA00B7D2C000065
:102904002000EE01EE0A8B2C0D1E892C8A2C8B2CB8
:10291400EE01080020006D08031D912C922CA32CBD
:102924008E1A952C962CA82C41302000A000EE3055
:10293400890B9A2CA00B9A2C00002000ED01ED0AC3
:10294400A82C8E1EA62CA72CA82CED0108000F3055
:10295400230010052000A000083020060319B32C22
:10296400B42CBF2C0F30230010052000A0000B3026
:102974002006031DBE2CBF2CC12C2300911523005F
:102984000F1CC52CC62CC12C0C0808002000A40167
:10299400A501201CCE2CCF2CD32C2208A40723085D
:1029A400A53D0130A235A30D890BD42C0130A136ED
:1029B400A00C890BD92C20082104031DE22CE32C44
:1029C400CB2C2508A1002408A00008002100280819
:1029D4000319ED2CEE2C092D1430A0070030A13D75
:1029E400F430F0000130F1002108F3002008F20077
:1029F40095315125943171082100A1007008A0007F
:102A04002108F1002008F0009331E92394310800F3
:102A1400F3000830F1007108F400F5017308F100C7
:102A24000730F136890B132D75357104F2007208E5
:102A3400F5000310F30D70087502031C222D232DDD
:102A4400252D7008F5020130F402031D2A2D2B2DCB
:102A5400102D7508080000308B1B01302000A300E6
:102A6400210830009B002000200830009A0020003C
:102A7400220830009C001E171E158B1355309F0032
:102A8400AA309F009E149E18482D492D452D1E11D5
:102A94002000230C031C8B1303188B1708007008E9
:102AA40071040319562D572D802DF501F50A632D58
:102AB4000130F035F10D890B5B2D0130F400740801
:102AC400F507F11F662D672D5A2D71087302031D3A
:102AD4006D2D70087202031C702D712D752D7008F8
:102AE400F2027108F33B0130F136F00C890B762DBC
:102AF4000130F502031D7F2D802D672D7308F10031
:102B04007208F000080020002808290403198B2DFE
:102B14008C2DB52DAD01AD0A982D0130A835A90D28
:102B2400890B902D0130AC002C08AD07A91F9B2DFB
:102B34009C2D8F2D29082B02031DA22D28082A0263
:102B4400031CA52DA62DAA2D2808AA022908AB3BF3
:102B54000130A936A80C890BAB2D0130AD02031D41
:102B6400B42DB52D9C2D2B08A9002A08A800080017
:102B740020009A0199019601970198010730950068
:102B84000F309100FF309200FF309300FF3094002B
:102B9400CF303E00D900C730CE00EF30C30007303D
:102BA400E4004F30B800DA01E501C401B901CF01F6
:102BB400E601BA01C501D001DB01FF30BB00FF30E3
:102BC400C600FF30D100FF30DC000730E7001330CF
:102BD4003D00C50014303E00A3001530A4000E30A3
:102BE400960014303D00C60008002000A501A6018F
:102BF400200821040319FF2D002E2F2EA701A70A58
:102C04000C2E0130A035A10D890B042E0130A40037
:102C14002408A707A11F0F2E102E032E0130A5355F
:102C2400A60D890B112E21082302031D1B2E20083B
:102C34002202031C1E2E1F2E242E2008A20221086D
:102C4400A33B25140130A136A00C890B252E01309D
:102C5400A702031D2E2E2F2E102E2608A1002508B4
:102C6400A0000800F601F31F382E392E402EF20979
:102C7400F309F20A0319F30AF601F60AF11F432EC7
:102C8400442E492EF009F109F00A0319F10A7008DB
:102C9400710403194E2E4F2E782EF501F50A5B2E82
:102CA4000130F035F10D890B532E0130F400740816
:102CB400F507F11F5E2E5F2E522E71087302031D5D
:102CC400652E70087202031C682E692E6D2E700822
:102CD400F2027108F33B0130F136F00C890B6E2ED1
:102CE4000130F502031D772E782E5F2E7608031926
:102CF4007C2E7D2E822EF209F309F20A0319F30ABF
:102D04007308F1007208F00008002000A3002300FB
:102D14000F0C890C01392000A200230011081F396F
:102D240020002204031D972E982E892E23001114AF
:102D340011189D2E9E2E9A2E23000F0C890C0139FA
:102D44002000A200230011081F3920002204031DC3
:102D5400AC2EAD2E9E2E4E30973130279631230067
:102D64000F0C890C01392000A200230011081F391F
:102D740020002204031DBF2EC02EB12E230897313C
:102D84003027963123000F0C890C01392000A20052
:102D9400230011081F3920002204031DD22ED32E34
:102DA400C42E230011151119D82ED92ED52E0800A2
:102DB4000130F9070030FA3D03102000961F031478
:102DC4000318E52EE82E20009617EA2E200096130D
:102DD4003C30F0000030F1007A08F3007908F2008A
:102DE40095315125963170087104031DFA2EFB2E7E
:102DF400002F0130F70077082000EF073C30F00087
:102E04000030F10020006F08F700F8017708F200A5
:102E14007808F30096313426963170087104031D46
:102E2400142F152F2F2F20006F0803191A2F1B2F73
:102E34002F2F0130F7007708FB071830F7007708C9
:102E4400F0007B0895310A259631F8007808FB00DC
:102E54002000EF0188312F20963108002000A100C6
:102E6400210823008C00901F382F392F3A2F892FE7
:102E74000F3010052000A000083020060319432F4E
:102E8400442F5D2F0F30230010052000A0000B30CD
:102E9400200603194E2F4F2F5D2F230010162E00EE
:102EA4000F1C552F562F512F23000F195A2F5B2F0C
:102EB400892F0F08892F0F30230010052000A00050
:102EC400083020060319672F682F732F0F30230053
:102ED40010052000A0000B302006031D722F732F55
:102EE400892F23000F18772F782F732F23000F0CAF
:102EF400890C01392000A000230011081F3920008B
:102F04002004031D862F872F782F23001108080023
:102F140011302000A8003A30890B8E2FA80B8E2F79
:102F24000000303096318726973134309631872629
:102F340097312930890B9C2F003230309631872607
:102F44009731FA300032890BA42F3030963187261E
:102F5400973134309631872697312930890BB02F39
:102F6400003230309631872697310830890BB82FDC
:102F740000003030963187269731343096318726D9
:102F840097312930890BC42F00323030963187268F
:102F940097310830890BCC2F0000203096318726DA
:102FA400973124309631872697312930890BD82FD1
:102FB40000322030963187269731FA300032890B5F
:102FC400E02F2000A2012830893100219731200010
:102FD400A20106308931002197312000A2010F306F
:102FE4008931002197312000A2010130893100216B
:102FF4009731A630890BFC2F003208002534303479
:10300400323464343A3425343034323464343A3427
:1030140025343034323464340034013400340A3416
:10302400003464340034E834033410342734253451
:103034003034323464342034433400344C34253452
:1030440030343134643400342034203420340034B7
:10305400433454344C340034413400345434003454
:04306400613400349F
:020000040001F9
:0A000E00EC3FFF3F9F3FFF3FFF3F25
:00000001FF
