:020000040000FA
:100000008031282808000C347E1480312E00961E82
:100010000A280B2813288C1E0E280F2813288B3132
:10002000A623803126280B1F162817282628991C5E
:100030001A281B2820288F1C1E281F282028262825
:10004000191C2328242826280F0826287E1009009A
:1000500080312A28803103208031FD002100873142
:10006000FC278031B6008731FD278031B70087310A
:10007000FE278031B8008731FF278031B900733007
:100080008400233085007D30FE000030FF008A317F
:10009000BF228031F901FA01FB01FC012000EC01D3
:1000A000ED01EE01EF01AC308400003085000A3034
:1000B000FE000030FF008A31BF2280317E10200018
:1000C0008331192B2000E6004408031968286928A9
:1000D0007B288F308A31742280312A302000AE0094
:1000E0009030AF0055308431E324803155308B316E
:1000F000902380318C288F308A31742280312E30C9
:100100002000AE009030AF0055308431E3248031C0
:1001100055308B319023803120004908031D9128F0
:100120009228362980308A317422803100302000B4
:10013000AE009030AF004608CF00D0014F08B000AD
:100140005008B1004708D100D2015108B20052084E
:10015000B3004808D300D4015308B4005408B500D4
:1001600055308431E324803155308B3190238031F8
:10017000C0308A317422803119302000AE009030B6
:10018000AF006608CF00D0014F08B0005008B100A2
:1001900055308431E324803155308B3190238031C8
:1001A000CE308A317422803120302000AE00903071
:1001B000AF004308CF00D0014F08B0005008B10095
:1001C00055308431E324803155308B319023803198
:1001D00020004503031DED28EE2804298A308A31CA
:1001E000742280311E302000AE009030AF005530B8
:1001F0008431E324803155308B31902380319A3023
:100200008A3174228031182B02304506031D0929DA
:100210000A2920298A308A31742280312C3020002A
:10022000AE009030AF0055308431E324803155303A
:100230008B31902380319A308A3174228031182B8F
:100240008A308A317422803128302000AE0090300C
:10025000AF0055308431E324803155308B31902309
:1002600080319A308A3174228031182B80308A3163
:100270007422803100302000AE009030AF0046087C
:10028000CF00D0014F08B0005008B1004708D1009E
:10029000D2015108B2005208B3004808D300D4017B
:1002A0005308B4005408B50055308431E32480313C
:1002B00055308B31902380318A308A3174228031DD
:1002C00026302000AE009030AF0055308431E3245A
:1002D000803155308B3190238031C0308A31742287
:1002E000803119302000AE009030AF006608CF009A
:1002F000D0014F08B0005008B10055308431E324DC
:10030000803155308B3190238031CE308A31742248
:10031000803120302000AE009030AF004B08CF007D
:10032000D0014F08B0005008B10055308431E324AB
:10033000803155308B319023803120004903031DDB
:10034000A229A329A72981308A3174228031023061
:1003500020004906031DAD29AE29B22984308A3117
:1003600074228031033020004906031DB829B929C1
:10037000BD2987308A31742280310430200049063B
:10038000031DC329C429EE2980308A3174228031AB
:1003900000302000AE009030AF004C08CF00D001FC
:1003A0004F08B0005008B1004D08D100D2015108EB
:1003B000B2005208B3004E08D300D4015308B40071
:1003C0005408B50055308431E324803155308B31E9
:1003D000902380318A308A317422803105302000A8
:1003E0004906031DF429F5291F2A80308A31742219
:1003F000803100302000AE009030AF004C08CF00BC
:10040000D0014F08B0005008B1004D08D100D20112
:100410005108B2005208B3004E08D300D40153086B
:10042000B4005408B50055308431E3248031553090
:100430008B319023803181308A31742280310630B3
:1004400020004906031D252A262A502A80308A3199
:100450007422803100302000AE009030AF004C0894
:10046000CF00D0014F08B0005008B1004D08D100B6
:10047000D2015108B2005208B3004E08D300D40193
:100480005308B4005408B50055308431E32480315A
:1004900055308B319023803184308A317422803101
:1004A000073020004906031D562A572A812A80302A
:1004B0008A317422803100302000AE009030AF00CD
:1004C0004C08CF00D0014F08B0005008B1004D08D3
:1004D000D100D2015108B2005208B3004E08D30037
:1004E000D4015308B4005408B50055308431E324D6
:1004F000803155308B319023803187308A3174229E
:100500008031083020004906031D872A882AA42A42
:10051000C0308A317422803119302000AE00903012
:10052000AF004A08CF00D0014F08B0005008B1001A
:1005300055308431E324803155308B319023803124
:100540008B308A3174228031093020004906031D26
:10055000AA2AAB2AC72AC0308A31742280311930C6
:100560002000AE009030AF004A08CF00D0014F0805
:10057000B0005008B10055308431E324803155304B
:100580008B3190238031C1308A31742280310A301E
:1005900020004906031DCD2ACE2AEA2ACE308A3110
:1005A0007422803120302000AE009030AF004B0824
:1005B000CF00D0014F08B0005008B1005530843151
:1005C000E324803155308B31902380318C308A3157
:1005D000742280310B3020004906031DF02AF12AD5
:1005E0000D2BCE308A317422803120302000AE00B5
:1005F0009030AF004B08CF00D0014F08B00050083A
:10060000B10055308431E324803155308B31902353
:100610008031CF308A31742280310C30200049067D
:10062000031D132B142B182B0F308A3174228031A9
:1006300008002000EB018B31022383315830200069
:10064000A0000E30A1008A318D2283318B170B1749
:100650008A31B32283312000931513163E00CF1543
:100660004F162000E901E90A8E31B62683310330A6
:100670002000A8000030A9007C08AB007B08AA007D
:100680008C31AB248331200028082904031D492B19
:100690004A2B5A2B8631812683312100A000200865
:1006A0002000E7008731D12783312100A0002008F6
:1006B0002000E8008B31BD2383318B31DA23833175
:1006C000572C6D03031D652B662B812CEB01EB0A68
:1006D000812C6C03031D6D2B6E2B722B8A31E6224D
:1006E0008331812C6D03031D762B772B812C0230F7
:1006F0002100A00020082000EB00812C6C03031DCA
:10070000822B832B872B8A31F4228331812C6D033A
:10071000031D8B2B8C2B812C03302100A000200883
:100720002000EB00812C6C03031D972B982B9C2B36
:100730008A3167228331812C6D03031DA02BA12BED
:10074000812C04302100A00020082000EB00812C27
:100750006C03031DAC2BAD2BB42B05302100A00086
:1007600020082000EB00812C6D03031DB82BB92B52
:10077000812C08302100A00020082000EB00812CF3
:100780006C03031DC42BC52BC92B8A31D82283319E
:10079000812C6D03031DCD2BCE2B812C0630210027
:1007A000A00020082000EB00812C6C03031DD92B36
:1007B000DA2BDE2B8B3112238331812C6D03031D49
:1007C000E22BE32B812C07302100A0002008200021
:1007D000EB00812C6C03031DEE2BEF2BF32B8B31E5
:1007E00022238331812C6D03031DF72BF82B812CE1
:1007F000B92B6C03031DFD2BFE2B052C09302100AA
:10080000A00020082000EB00812C6D03031D092CA3
:100810000A2C812C0A302100A00020082000EB00C7
:10082000812C6C03031D152C162C1A2C8B314223A2
:100830008331812C6D03031D1E2C1F2C812C0A2C4F
:100840006C03031D242C252C2C2C0B302100A00024
:1008500020082000EB00812C6D03031D302C312C6F
:10086000812C0C302100A00020082000EB00812CFE
:100870006C03031D3C2C3D2C412C8B3132238331E6
:10088000812C6D03031D452C462C812C312C6C03CF
:10089000031D4B2C4C2C502C8A31A8228331812CE7
:1008A0006D03031D542C552C812CEB01812C200051
:1008B0006B08003A0319612B013A0319692B033ABB
:1008C00003197E2B013A0319932B073A0319A82B1E
:1008D000013A0319C02B033A0319D52B013A031926
:1008E000EA2B0F3A0319F92B013A0319112C033A99
:1008F0000319202C013A0319382C073A0319472C05
:10090000812C3C302000A8000030A9007C08AB00FE
:100910007B08AA008C31AB248331200028082100F9
:10092000A00020082000EA0068082100A00020089C
:100930002000C30021003308A10021082000C400CA
:1009400069082100A20022082000C5006F082100CC
:10095000A30023082000C6006E082100A40024087C
:100960002000C7006A082100A50025082000C80053
:100970006B082100A60026082000C90021003708C6
:10098000A70027082000CA0021003608A800280870
:100990002000CB007D082100A90029082000CC0000
:1009A00021003508AA002A082000CD0021003408C3
:1009B000AB002B082000CE00670880316220833115
:1009C000372B803128282000C2003030B60036088E
:1009D000BA00682E253041060319EF2CF02CFC2CB0
:1009E0004108B600420886008701360881000130C0
:1009F000B6003608C207682EBF01C001BE01052D32
:100A00003E150130AE070030AF3D2E0884002F08A0
:100A100085000008303A0319002D0E2D2E088400A1
:100A20002F08850000088B3152238431031C192DB7
:100A30001A2D4D2D2000BF01C0010A302000A0005A
:100A40000030A1004008A3003F08A2008C313424EC
:100A5000843120002108C0002008BF002E08840037
:100A60002F0885000008D03EB600FF300318003084
:100A7000B7003608BF073708C03D0130AE07003069
:100A8000AF3D2E0884002F08850000088B315223CB
:100A9000843103184C2D4D2D1D2D20002F08B7003B
:100AA0002E08B600AE0A0319AF0A360884003708CC
:100AB00085000008C100003A03197C2E643A03192E
:100AC000652D0D3A0319652D682E3A0886008701B9
:100AD000403FBC00413FBD000230B6003608BA07B7
:100AE000BD1F732D742D7D2D0330B6003608BE0456
:100AF000BC09BD09BC0A0319BD0AC101C10A4108EC
:100B0000B600B701B635B70D0F3036078400903008
:100B1000373D8500003FB800013FB90039083D026C
:100B2000031D942D38083C020318972D982D992DFC
:100B3000A32D0130B6003608C10705304106031D5C
:100B4000A22DA32D7F2D3F0840040319A82DA92D08
:100B5000B32D3E0803390319AE2DAF2DB32DFF3051
:100B6000BF07FF30C03D4008803A803C031DBA2DCE
:100B70003F0841020318BD2DBE2DC72D200041089E
:100B8000B600B7013608BF023708C03BCA2D2000A7
:100B9000BF01C0013E1DCD2DCE2DFB2D3E080339DA
:100BA0000319D32DD42DDF2D2D30B6004208860039
:100BB0008701360881000130B6003608C2073F08B9
:100BC00040040319E42DE52D272E3030B6004208ED
:100BD00086008701360881000130B6003608C2075A
:100BE000FF30BF07FF30C03D3F084004031DF92D13
:100BF000FA2DE52D272E3F0840040319002E012E63
:100C0000162E2030B6004208860087013608810083
:100C10000130B6003608C207FF30BF07FF30C03DC5
:100C20003F084004031D152E162E012E3E080339E1
:100C300003191B2E1C2E272E2D30B60042088600CD
:100C40008701360881000130B6003608C207410826
:100C5000B6003608BB005F2E0A30A8000030A9009D
:100C60003B08B600B701B635B70D0F303607840024
:100C70009030373D8500003FA000013FA1003D08B6
:100C8000A3003C08A2008D311B25843120002108DF
:100C9000AB002008AA008C31AB2484312000280846
:100CA000303EB8003808C1004108B600420886004E
:100CB0008701360881000130B6003608C207FF30D0
:100CC000B6003608BB073B0A031D672E682E2C2E84
:100CD0002F08B7002E08B600AE0A0319AF0A36086F
:100CE0008400370885000008B8003808C1004108B2
:100CF000031D7B2E7C2EEA2C420886008701810191
:100D0000080023000F0C890C01392000A2002300E9
:100D100011081F3920002204031D8F2E902E812ED2
:100D2000230011141118952E962E922E23000F0CCD
:100D3000890C01392000A200230011081F3920006E
:100D40002204031DA42EA52E962E9A308D31FE2549
:100D5000863123000F0C890C01392000A2002300EA
:100D600011081F3920002204031DB72EB82EA92E0A
:100D700001308D31FE25863123000F0C890C01399D
:100D80002000A200230011081F3920002204031DA7
:100D9000CA2ECB2EBC2E230091149118D02ED12E0A
:100DA000CD2E23000F0C890C01392000A200230056
:100DB00011081F3920002204031DDF2EE02ED12E42
:100DC0009B308D31FE25863123000F0C890C0139B3
:100DD0002000A200230011081F3920002204031D57
:100DE000F22EF32EE42E8C31152486312000A20041
:100DF0002208A30023000F0C890C01392000A20057
:100E0000230011081F3920002204031D082F092F79
:100E1000FA2E230091161116111A0F2F102F0C2FD6
:100E200023000F0C890C01392000A20023001108B7
:100E30001F3920002204031D1E2F1F2F102F2300F7
:100E400011151119242F252F212F2000231F292FA1
:100E50002A2F812E23000F0C890C01392000A200BB
:100E6000230011081F3920002204031D382F392FB9
:100E70002A2F2300111411183E2F3F2F3B2F230040
:100E80000F0C890C01392000A200230011081F3922
:100E900020002204031D4D2F4E2F3F2F9A308D31FD
:100EA000FE25863123000F0C890C01392000A20099
:100EB000230011081F3920002204031D602F612F19
:100EC000522F00308D31FE25863123000F0C890C06
:100ED00001392000A200230011081F39200022043C
:100EE000031D732F742F652F230091149118792FF0
:100EF0007A2F762F23000F0C890C01392000A200D5
:100F0000230011081F3920002204031D882F892F78
:100F10007A2F9B308D31FE25863123000F0C890CF2
:100F200001392000A200230011081F3920002204EB
:100F3000031D9B2F9C2F8D2F8C3115248631200073
:100F4000A2002208A30023000F0C890C0139200005
:100F5000A200230011081F3920002204031DB12F15
:100F6000B22FA32F230091161116111AB82FB92FE3
:100F7000B52F23000F0C890C01392000A20023009B
:100F800011081F3920002204031DC72FC82FB92FB5
:100F9000230011151119CD2FCE2FCA2F20002308A1
:100FA00008008B317A23873100308A317C228731E7
:100FB0008A319F22873120002108A5002008A40043
:100FC0002508A3002408A2000630A235A30D890B32
:100FD000E52F2208A4002308A5002508A300240863
:100FE000A2000D30A336A20C890BF22F2208A40018
:100FF0002308A5002408080004341C3405340334F5
:1014CE000130FB070030FC3D08002F00960197010C
:1014DE00980199019A019B0108002000A800A20121
:1014EE0028088F312C278A3108002000A000200800
:1014FE0021009E00931713140800623031008D00F6
:10150E008F01910102309300920108002000210802
:10151E002100BB00200020082100BA000800200096
:10152E00A800A201A20A28088F312C278A310800B0
:10153E0021000D082000A10021000C082000A000B1
:10154E00080021003308031DAD2AAE2AB12AB301CB
:10155E00B30AB22AB30108002300901AB72AB82A98
:10156E00BE2A8F0128309000910103308D000800B3
:10157E006400800101310130FE020030FF3B7F0824
:10158E007E04031DC02A003421003A083B040319CF
:10159E00D12AD22AD72A3B088A003A080A008A3171
:1015AE00080017307D06031DDD2ADE2AE02AFD0124
:1015BE00E52A01302000A0002008FD0708001730A2
:1015CE0020006F06031DEC2AED2AEF2AEF01F32A05
:1015DE000130A0002008EF0708003B3020006E0607
:1015EE00031DFA2AFB2AFD2AEE01012B0130A00071
:1015FE002008EE0708008A316C228B318C31E024F2
:10160E008B318A3184228B318B317A238B318B3122
:10161E0065238B3108003B3021003506031D182B46
:10162E00192B1B2BB501212B01302000A000200807
:10163E002100B50708003B3021003406031D282B7E
:10164E00292B2B2BB401312B01302000A0002008B8
:10165E002100B4070800073021003606031D382B81
:10166E00392B3B2BB601412B01302000A000200866
:10167E002100B6070800323021003706031D482B23
:10168E00492B4B2BB701512B01302000A000200815
:10169E002100B70708002000A100A0013A30210266
:1016AE0003185A2B5B2B632B30302102031C602B4B
:1016BE00612B632BA001A00A200C080046302000ED
:1016CE009F000F309D009C012E008C12961602304A
:1016DE002000A0000030A1008A318D228B31803095
:1016EE0020009E00080022008E018F0190019101C2
:1016FE00920193018D0121009E019B0194019501A0
:10170E00960197019A0199019801843093009D01E9
:10171E0008002000AB00972B2A088A3196228B31C5
:10172E0020002B0886008701AB0A0108A9002908B2
:10173E00AA002A08031DA42BA52B932B08002E000C
:10174E008C1201302100AC070030AD3D00302D026F
:10175E00F43003192C02031CB52BB62BBC2B8A318B
:10176E00CB228B312100AC01AD01080020006D08A9
:10177E00031DC22BC32BD42B0D1AC62BC72BD92B53
:10178E0041302000A000EE30890BCB2BA00BCB2BD1
:10179E0000002000ED01ED0AD92B0D1ED72BD82B02
:1017AE00D92BED01080020006C08031DDF2BE02B68
:1017BE00F12B8E1AE32BE42BF62B41302000A000E8
:1017CE00EE30890BE82BA00BE82B00002000EC017B
:1017DE00EC0AF62B8E1EF42BF52BF62BEC010800E3
:1017EE0000308B1B0130F300710830009B00700835
:1017FE009A0072089C001E171E158B1355309F0001
:10180E00AA309F009E149E180D2C0E2C0A2C1E1111
:10181E00730C031C8B1303188B1708000F30230057
:10182E0010052000A0000830200603191F2C202CC4
:10183E002B2C0F30230010052000A0000B302006AB
:10184E00031D2A2C2B2C2D2C2300911523000F1C4D
:10185E00312C322C2D2C0C0808002000A401A501DF
:10186E00201C3A2C3B2C3F2C2208A4072308A53D14
:10187E000130A235A30D890B402C0130A136A00CEE
:10188E00890B452C20082104031D4E2C4F2C372C80
:10189E002508A1002408A0000800F3000830F1007C
:1018AE007108F400F5017308F1000730F136890B69
:1018BE005D2C75357104F2007208F5000310F30DFE
:1018CE0070087502031C6C2C6D2C6F2C7008F502C1
:1018DE000130F402031D742C752C5A2C7508080067
:1018EE007008710403197C2C7D2CA62CF501F50AC9
:1018FE00892C0130F035F10D890B812C0130F4006B
:10190E007408F507F11F8C2C8D2C802C7108730236
:10191E00031D932C70087202031C962C972C9B2C83
:10192E007008F2027108F33B0130F136F00C890BAE
:10193E009C2C0130F502031DA52CA62C8D2C7308B2
:10194E00F1007208F000080020002808290403198D
:10195E00B12CB22CDB2CAD01AD0ABE2C0130A8355A
:10196E00A90D890BB62C0130AC002C08AD07A91FB0
:10197E00C12CC22CB52C29082B02031DC82C2808FB
:10198E002A02031CCB2CCC2CD02C2808AA02290806
:10199E00AB3B0130A936A80C890BD12C0130AD021E
:1019AE00031DDA2CDB2CC22C2B08A9002A08A80058
:1019BE00080020009A0199019601970198010730BD
:1019CE009500EF309100FF309200FF309300FF3012
:1019DE009400FF303E00D900C730CE00EF30C30078
:1019EE000730E400EF30B800DA01E501C401B901B7
:1019FE00CF01E601BA01C501D001DB01FF30BB000A
:101A0E00FF30C600FF30D100FF30DC000730E700AA
:101A1E0013303D00C50014303E00A3001530A40065
:101A2E0014303D00C60008002000A501A6012008C4
:101A3E0021040319232D242D532DA701A70A302D80
:101A4E000130A035A10D890B282D0130A4002408EA
:101A5E00A707A11F332D342D272D0130A535A60D37
:101A6E00890B352D21082302031D3F2D200822024C
:101A7E00031C422D432D482D2008A2022108A33B12
:101A8E0025140130A136A00C890B492D0130A70277
:101A9E00031D522D532D342D2608A1002508A0001C
:101AAE000800F601F31F5C2D5D2D642DF209F3097C
:101ABE00F20A0319F30AF601F60AF11F672D682DD3
:101ACE006D2DF009F109F00A0319F10A700871047D
:101ADE000319722D732D9C2DF501F50A7F2D013002
:101AEE00F035F10D890B772D0130F4007408F507F0
:101AFE00F11F822D832D762D71087302031D892D02
:101B0E0070087202031C8C2D8D2D912D7008F2021F
:101B1E007108F33B0130F136F00C890B922D013038
:101B2E00F502031D9B2D9C2D832D76080319A02DE8
:101B3E00A12DA62DF209F309F20A0319F30A73086F
:101B4E00F1007208F00008002000A30023000F0C23
:101B5E00890C01392000A200230011081F39200032
:101B6E002204031DBB2DBC2DAD2D23001114111805
:101B7E00C12DC22DBE2D23000F0C890C0139200062
:101B8E00A200230011081F3920002204031DD02DAE
:101B9E00D12DC22D4E308D31FE258D3123000F0CEF
:101BAE00890C01392000A200230011081F392000E2
:101BBE002204031DE32DE42DD52D23088D31FE25A2
:101BCE008D3123000F0C890C01392000A200230057
:101BDE0011081F3920002204031DF62DF72DE82DC4
:101BEE00230011151119FC2DFD2DF92D08002000D3
:101BFE00A100210823008C00901F062E072E082E10
:101C0E00572E0F3010052000A000083020060319B3
:101C1E00112E122E2B2E0F30230010052000A000A7
:101C2E000B30200603191C2E1D2E2B2E23001016F2
:101C3E002E000F1C232E242E1F2E23000F19282EAC
:101C4E00292E572E0F08572E0F3023001005200077
:101C5E00A000083020060319352E362E412E0F30E7
:101C6E00230010052000A0000B302006031D402E7F
:101C7E00412E572E23000F18452E462E412E23009F
:101C8E000F0C890C01392000A000230011081F3908
:101C9E0020002004031D542E552E462E230011081D
:101CAE0008000130FB070030FC3D3C30F0000030F6
:101CBE00F1007C08F3007B08F2008C3177248E3122
:101CCE0070087104031D6C2E6D2E722E0130F700FC
:101CDE0077082000EE073C30F0000030F1002000C5
:101CEE006E08F700F8017708F2007808F3008D31DE
:101CFE0058258E3170087104031D862E872EB52E41
:101D0E0020006E0803198C2E8D2EB52E0130F70093
:101D1E007708EF071830F7007708F0006F088C315E
:101D2E0054248E31F80078082000EF00EE019F3029
:101D3E00F0000030F1006F08F7007708F2008B31E9
:101D4E00F7238E31A030F0000030F10020006E0835
:101D5E00F7007708F2008B31F7238E31080011302F
:101D6E002000A8003A30890BBA2EA80BBA2E00001C
:101D7E0030308D31AB258E3134308D31AB258E31F7
:101D8E002930890BC82E003230308D31AB258E3183
:101D9E00FA300032890BD02E30308D31AB258E319A
:101DAE0034308D31AB258E312930890BDC2E00324B
:101DBE0030308D31AB258E310830890BE42E00008A
:101DCE0030308D31AB258E3134308D31AB258E31A7
:101DDE002930890BF02E003230308D31AB258E310B
:101DEE000830890BF82E000020308D31AB258E3156
:101DFE0024308D31AB258E312930890B042F0032E2
:101E0E0020308D31AB258E31FA300032890B0C2FFC
:101E1E002000A20128308F312C278E312000A20104
:101E2E0006308F312C278E312000A2010F308F31DA
:101E3E002C278E312000A20101308F312C278E31BC
:101E4E00A630890B282F003208002000A500250897
:101E5E00F039A3002308A6002508A3000330A335FC
:101E6E00FF3E031D362F2335F039A4002408A700AA
:101E7E0023000F0C890C01392000A3002300110848
:101E8E001F3920002304031D4D2F4E2F3F2F2300FB
:101E9E0011141118532F542F502F23000F0C890C8F
:101EAE0001392000A300230011081F39200023044C
:101EBE00031D622F632F542F4E308D31FE258F312F
:101ECE0023000F0C890C01392000A30023001108F8
:101EDE001F3920002304031D752F762F672F260828
:101EEE00220408388D31FE258F3123000F0C890C0A
:101EFE0001392000A300230011081F3920002304FC
:101F0E00031D8A2F8B2F7C2F260822040C388D312F
:101F1E00FE258F3123000F0C890C01392000A30000
:101F2E00230011081F3920002304031D9F2FA02F0B
:101F3E00912F20002608220408388D31FE258F317E
:101F4E0023000F0C890C01392000A3002300110877
:101F5E001F3920002304031DB52FB62FA72F2708E6
:101F6E00220408388D31FE258F3123000F0C890C89
:101F7E0001392000A300230011081F39200023047B
:101F8E00031DCA2FCB2FBC2F270822040C388D31EE
:101F9E00FE258F3123000F0C890C01392000A30080
:101FAE00230011081F3920002304031DDF2FE02F0B
:101FBE00D12F20002708220408388D31FE258F31BD
:101FCE0023000F0C890C01392000A30023001108F7
:101FDE001F3920002304031DF52FF62FE72F2300B2
:101FEE0011151119FB2FFC2FF82F0430890BFD2F23
:101FFE00080025343034323464343A3425343034E5
:10200E00323464343A342534303432346434003467
:10201E00013400340A34003464340034E8340334B8
:10202E00103427342534303432346434203443347D
:10203E0000344C3425343034313464340034433479
:10204E0054344C340034413400345434003461344C
:02205E0000344C
:020000040001F9
:0A000E00EC3FFF3F9F3FFF3FFF3F25
:00000001FF
