:020000040000FA
:0400000080312828FB
:100008007E1480312E00961E0A280B2813288C1E79
:100018000E280F28132883317E23803126280B1FB2
:10002800162817282628991C1A281B2820288F1CD0
:100038001E281F2820282628191C2328242826287B
:100048000F0826287E10090080312A288331F623DC
:100058008031FC008331F7238031FD008331F323A5
:100068008031B2008331F4238031B3008331F5232A
:100078008031B40073308400233085007D30FE0069
:100088000030FF008331C4238031F901FA01FB01FC
:1000980020308400003085000C30FE000030FF0066
:1000A8008331C42380317E1020008331302B23001C
:1000B8000F0C890C01392000AE00230011081F39EC
:1000C80020002E04031D69286A285B2823001114C8
:1000D80011186F2870286C2823000F0C890C01391F
:1000E8002000AE00230011081F3920002E04031D34
:1000F8007E287F2870289A308131AB2180312300F7
:100108000F0C890C01392000AE00230011081F399B
:1001180020002E04031D9128922883280130813164
:10012800AB21803123000F0C890C01392000AE006F
:10013800230011081F3920002E04031DA428A52818
:100148009628230091149118AA28AB28A7282300E1
:100158000F0C890C01392000AE00230011081F394B
:1001680020002E04031DB928BA28AB289B30813102
:10017800AB21803123000F0C890C01392000AE001F
:10018800230011081F3920002E04031DCC28CD2878
:10019800BE2883315F2380312000AE002E08AF00D7
:1001A80023000F0C890C01392000AE002300110830
:1001B8001F3920002E04031DE228E328D428230039
:1001C80091161116111AE928EA28E62823000F0CBF
:1001D800890C01392000AE00230011081F392000C6
:1001E8002E04031DF828F928EA28230011151119EF
:1001F800FE28FF28FB2820002F1F032904295B283D
:1002080023000F0C890C01392000AE0023001108CF
:100218001F3920002E04031D122913290429230045
:100228001114111818291929152923000F0C890CE4
:1002380001392000AE00230011081F3920002E04C8
:10024800031D2729282919299A308131AB218031AA
:1002580023000F0C890C01392000AE00230011087F
:100268001F3920002E04031D3A293B292C29003070
:100278008131AB21803123000F0C890C013920001A
:10028800AE00230011081F3920002E04031D4D293C
:100298004E293F2923009114911853295429502994
:1002A80023000F0C890C01392000AE00230011082F
:1002B8001F3920002E04031D6229632954299B300D
:1002C8008131AB21803123000F0C890C01392000CA
:1002D800AE00230011081F3920002E04031D7529C4
:1002E8007629672983315F2380312000AE002E08EC
:1002F800AF0023000F0C890C01392000AE00230049
:1003080011081F3920002E04031D8B298C297D29F3
:10031800230091161116111A922993298F29230067
:100328000F0C890C01392000AE00230011081F3979
:1003380020002E04031DA129A229932923001115A9
:100348001119A729A829A42920002F08080020008E
:10035800AD002D0823008C00901FB329B429B529BE
:10036800042A0F3010052000AC0008302C060319B1
:10037800BE29BF29D8290F30230010052000AC0062
:100388000B302C060319C929CA29D82923001016AD
:100398002E000F1CD029D129CC2923000F19D529CB
:1003A800D629042A0F08042A0F302300100520003C
:1003B800AC0008302C060319E229E329EE290F3096
:1003C800230010052000AC000B302C06031DED297E
:1003D800EE29042A23000F18F229F329EE29230015
:1003E8000F0C890C01392000AC00230011081F39BB
:1003F80020002C04031D012A022AF32923001108D6
:100408000800F601F31F092A0A2A112AF209F3093A
:10041800F20A0319F30AF601F60AF11F142A152A3B
:100428001A2AF009F109F00A0319F10A700871048F
:1004380003191F2A202A492AF501F50A2C2A013016
:10044800F035F10D890B242A0130F4007408F50702
:10045800F11F2F2A302A232A71087302031D362A16
:1004680070087202031C392A3A2A3E2A7008F202DE
:100478007108F33B0130F136F00C890B3F2A01304B
:10048800F502031D482A492A302A760803194D2AFD
:100498004E2A532AF209F309F20A0319F30A7308D8
:1004A800F1007208F000080020009A0199019601F5
:1004B8009701980107309500EF309100FF309200C6
:1004C800FF309300FF309400FF303E00D900E73042
:1004D800CE00FF30C3000730E400EF30B800DA0187
:1004E800E501C401B901CF01E601BA01C501D00196
:1004F800DB01FF30BB00FF30C600FF30D100FF300A
:10050800DC000730E70013303D00C50014303E0022
:10051800A3001530A40014303D00C60008002000D8
:100528002C082D040319992A9A2AC32AB101B10A61
:10053800A62A0130AC35AD0D890B9E2A0130B000DA
:100548003008B107AD1FA92AAA2A9D2A2D082F0213
:10055800031DB02A2C082E02031CB32AB42AB82A79
:100568002C08AE022D08AF3B0130AD36AC0C890B20
:10057800B92A0130B102031DC22AC32AAA2A2F08A8
:10058800AD002E08AC00080001302000A2070030A2
:10059800A33D3C30F0000030F1002308F3002208AE
:1005A800F2008231FC22823170087104031DDD2AB9
:1005B800DE2AE22A0130F7007708F9073C30F0001C
:1005C8000030F1007908F700F8017708F2007808A0
:1005D800F30082310522823170087104031DF52A67
:1005E800F62AFB2A0130F7007708FA07F901080014
:1005F800700871040319012B022B2B2BF501F50A46
:100608000E2B0130F035F10D890B062B0130F4006B
:100618007408F507F11F112B122B052B71087302B3
:10062800031D182B70087202031C1B2B1C2B202B7C
:100638007008F2027108F33B0130F136F00C890BB7
:10064800212B0130F502031D2A2B2B2B122B7308AB
:10065800F1007208F00008008331AA238331C83002
:100668002000AC000230AD008331ED2383318B17BD
:100678000B178331D02383312000931513163E00C6
:10068800CF154F1603302000AC000030AD00230812
:10069800AF002208AE0082319322833120002C085B
:1006A8002D04031D582B592B462B80315B20833199
:1006B800462B803128280F30230010052000AC007D
:1006C80008302C060319692B6A2B752B0F30230071
:1006D80010052000AC000B302C06031D742B752B65
:1006E800772B2300911523000F1C7B2B7C2B772B5A
:1006F8000C0808002E008C1201302000A4070030DE
:10070800A53D00302502F43003192402031C8D2B6B
:100718008E2B942B8331B72383312000A401A501AC
:100728000800463020009F000F309D009C012E00DD
:100738008C129616F8302000AC000330AD008331DF
:10074800ED238331803020009E0008008331E523AB
:1007580083318231582283318331DC2383318331E1
:100768009523833108002000350836040319BD2B72
:10077800BE2BC32B36088A0035080A0083310800CF
:100788006400800101310130FE020030FF3B7F0828
:100798007E04031DC52B00342300901AD42BD52BBF
:1007A800DB2B8F0128309000910103308D00080069
:1007B800623031008D008F01910102309300920167
:1007C80008002F0096019701980199019A019B0151
:1007D800080020002D08B6002C08B50008000434D5
:0A07E8001C3403340C3405340800FF
:020000040001F9
:0A000E00EC3FFF3F9F3FFF3FFF3F25
:00000001FF
